{
  "contractName": "ProofRegistry",
  "abi": [
    {
      "constant": true,
      "inputs": [
        {
          "name": "",
          "type": "address"
        },
        {
          "name": "",
          "type": "uint256"
        }
      ],
      "name": "proofs",
      "outputs": [
        {
          "name": "digest",
          "type": "bytes32"
        },
        {
          "name": "hashFunction",
          "type": "uint8"
        },
        {
          "name": "size",
          "type": "uint8"
        },
        {
          "name": "tags",
          "type": "string"
        }
      ],
      "payable": false,
      "stateMutability": "view",
      "type": "function"
    },
    {
      "constant": false,
      "inputs": [],
      "name": "destroy",
      "outputs": [],
      "payable": false,
      "stateMutability": "nonpayable",
      "type": "function"
    },
    {
      "constant": true,
      "inputs": [],
      "name": "owner",
      "outputs": [
        {
          "name": "",
          "type": "address"
        }
      ],
      "payable": false,
      "stateMutability": "view",
      "type": "function"
    },
    {
      "constant": false,
      "inputs": [
        {
          "name": "newOwner",
          "type": "address"
        }
      ],
      "name": "transferOwnership",
      "outputs": [],
      "payable": false,
      "stateMutability": "nonpayable",
      "type": "function"
    },
    {
      "constant": false,
      "inputs": [
        {
          "name": "_recipient",
          "type": "address"
        }
      ],
      "name": "destroyAndSend",
      "outputs": [],
      "payable": false,
      "stateMutability": "nonpayable",
      "type": "function"
    },
    {
      "inputs": [],
      "payable": false,
      "stateMutability": "nonpayable",
      "type": "constructor"
    },
    {
      "payable": true,
      "stateMutability": "payable",
      "type": "fallback"
    },
    {
      "anonymous": false,
      "inputs": [
        {
          "indexed": true,
          "name": "previousOwner",
          "type": "address"
        },
        {
          "indexed": true,
          "name": "newOwner",
          "type": "address"
        }
      ],
      "name": "OwnershipTransferred",
      "type": "event"
    },
    {
      "constant": false,
      "inputs": [
        {
          "name": "_digest",
          "type": "bytes32"
        },
        {
          "name": "_hashFunction",
          "type": "uint8"
        },
        {
          "name": "_size",
          "type": "uint8"
        },
        {
          "name": "_tags",
          "type": "string"
        }
      ],
      "name": "createProof",
      "outputs": [
        {
          "name": "success",
          "type": "bool"
        }
      ],
      "payable": false,
      "stateMutability": "nonpayable",
      "type": "function"
    },
    {
      "constant": true,
      "inputs": [
        {
          "name": "_address",
          "type": "address"
        },
        {
          "name": "_digest",
          "type": "bytes32"
        },
        {
          "name": "_hashFunction",
          "type": "uint8"
        },
        {
          "name": "_size",
          "type": "uint8"
        }
      ],
      "name": "verifyProof",
      "outputs": [
        {
          "name": "",
          "type": "bool"
        }
      ],
      "payable": false,
      "stateMutability": "view",
      "type": "function"
    },
    {
      "constant": true,
      "inputs": [],
      "name": "getNumberOfProofs",
      "outputs": [
        {
          "name": "index",
          "type": "uint256"
        }
      ],
      "payable": false,
      "stateMutability": "view",
      "type": "function"
    }
  ],
  "bytecode": "0x608060405234801561001057600080fd5b50336000806101000a81548173ffffffffffffffffffffffffffffffffffffffff021916908373ffffffffffffffffffffffffffffffffffffffff16021790555033600360006101000a81548173ffffffffffffffffffffffffffffffffffffffff021916908373ffffffffffffffffffffffffffffffffffffffff160217905550610c0d806100a16000396000f30060806040526004361061008e576000357c0100000000000000000000000000000000000000000000000000000000900463ffffffff1680630707360c146100905780633d856fff1461011357806383197ef0146102025780638da5cb5b146102195780639dfa85be14610270578063bdd8c1bf1461029b578063f2fde38b14610344578063f5074f4114610387575b005b34801561009c57600080fd5b506100f9600480360381019080803573ffffffffffffffffffffffffffffffffffffffff1690602001909291908035600019169060200190929190803560ff169060200190929190803560ff1690602001909291905050506103ca565b604051808215151515815260200191505060405180910390f35b34801561011f57600080fd5b5061015e600480360381019080803573ffffffffffffffffffffffffffffffffffffffff16906020019092919080359060200190929190505050610463565b6040518085600019166000191681526020018460ff1660ff1681526020018360ff1660ff16815260200180602001828103825283818151815260200191508051906020019080838360005b838110156101c45780820151818401526020810190506101a9565b50505050905090810190601f1680156101f15780820380516001836020036101000a031916815260200191505b509550505050505060405180910390f35b34801561020e57600080fd5b50610217610561565b005b34801561022557600080fd5b5061022e6105f6565b604051808273ffffffffffffffffffffffffffffffffffffffff1673ffffffffffffffffffffffffffffffffffffffff16815260200191505060405180910390f35b34801561027c57600080fd5b5061028561061c565b6040518082815260200191505060405180910390f35b3480156102a757600080fd5b5061032a6004803603810190808035600019169060200190929190803560ff169060200190929190803560ff169060200190929190803590602001908201803590602001908080601f0160208091040260200160405190810160405280939291908181526020018383808284378201915050505050509192919290505050610666565b604051808215151515815260200191505060405180910390f35b34801561035057600080fd5b50610385600480360381019080803573ffffffffffffffffffffffffffffffffffffffff16906020019092919050505061087e565b005b34801561039357600080fd5b506103c8600480360381019080803573ffffffffffffffffffffffffffffffffffffffff1690602001909291905050506109d3565b005b6000806103d8858585610a47565b90508573ffffffffffffffffffffffffffffffffffffffff1660026000836000191660001916815260200190815260200160002060000160009054906101000a900473ffffffffffffffffffffffffffffffffffffffff1673ffffffffffffffffffffffffffffffffffffffff161415610455576001915061045a565b600091505b50949350505050565b60016020528160005260406000208181548110151561047e57fe5b9060005260206000209060030201600091509150508060000154908060010160009054906101000a900460ff16908060010160019054906101000a900460ff1690806002018054600181600116156101000203166002900480601f0160208091040260200160405190810160405280929190818152602001828054600181600116156101000203166002900480156105575780601f1061052c57610100808354040283529160200191610557565b820191906000526020600020905b81548152906001019060200180831161053a57829003601f168201915b5050505050905084565b6000809054906101000a900473ffffffffffffffffffffffffffffffffffffffff1673ffffffffffffffffffffffffffffffffffffffff163373ffffffffffffffffffffffffffffffffffffffff161415156105bc57600080fd5b6000809054906101000a900473ffffffffffffffffffffffffffffffffffffffff1673ffffffffffffffffffffffffffffffffffffffff16ff5b600360009054906101000a900473ffffffffffffffffffffffffffffffffffffffff1681565b6000600160003373ffffffffffffffffffffffffffffffffffffffff1673ffffffffffffffffffffffffffffffffffffffff16815260200190815260200160002080549050905090565b600080610674868686610a47565b9050600160026000836000191660001916815260200190815260200160002060000160149054906101000a900460ff1660ff16141515156106b457600080fd5b600160003373ffffffffffffffffffffffffffffffffffffffff1673ffffffffffffffffffffffffffffffffffffffff168152602001908152602001600020608060405190810160405280886000191681526020018760ff1681526020018660ff16815260200185815250908060018154018082558091505090600182039060005260206000209060030201600090919290919091506000820151816000019060001916905560208201518160010160006101000a81548160ff021916908360ff16021790555060408201518160010160016101000a81548160ff021916908360ff16021790555060608201518160020190805190602001906107b8929190610b3c565b5050505060408051908101604052803373ffffffffffffffffffffffffffffffffffffffff168152602001600160ff1681525060026000836000191660001916815260200190815260200160002060008201518160000160006101000a81548173ffffffffffffffffffffffffffffffffffffffff021916908373ffffffffffffffffffffffffffffffffffffffff16021790555060208201518160000160146101000a81548160ff021916908360ff1602179055509050506001915050949350505050565b6000809054906101000a900473ffffffffffffffffffffffffffffffffffffffff1673ffffffffffffffffffffffffffffffffffffffff163373ffffffffffffffffffffffffffffffffffffffff161415156108d957600080fd5b600073ffffffffffffffffffffffffffffffffffffffff168173ffffffffffffffffffffffffffffffffffffffff161415151561091557600080fd5b8073ffffffffffffffffffffffffffffffffffffffff166000809054906101000a900473ffffffffffffffffffffffffffffffffffffffff1673ffffffffffffffffffffffffffffffffffffffff167f8be0079c531659141344cd1fd0a4f28419497f9722a3daafe3b4186f6b6457e060405160405180910390a3806000806101000a81548173ffffffffffffffffffffffffffffffffffffffff021916908373ffffffffffffffffffffffffffffffffffffffff16021790555050565b6000809054906101000a900473ffffffffffffffffffffffffffffffffffffffff1673ffffffffffffffffffffffffffffffffffffffff163373ffffffffffffffffffffffffffffffffffffffff16141515610a2e57600080fd5b8073ffffffffffffffffffffffffffffffffffffffff16ff5b60008383836040516020018084600019166000191681526020018360ff1660ff167f01000000000000000000000000000000000000000000000000000000000000000281526001018260ff1660ff167f010000000000000000000000000000000000000000000000000000000000000002815260010193505050506040516020818303038152906040526040518082805190602001908083835b602083101515610b065780518252602082019150602081019050602083039250610ae1565b6001836020036101000a038019825116818451168082178552505050505050905001915050604051809103902090509392505050565b828054600181600116156101000203166002900490600052602060002090601f016020900481019282601f10610b7d57805160ff1916838001178555610bab565b82800160010185558215610bab579182015b82811115610baa578251825591602001919060010190610b8f565b5b509050610bb89190610bbc565b5090565b610bde91905b80821115610bda576000816000905550600101610bc2565b5090565b905600a165627a7a72305820c79e55aac12a68a29f52292dc05b756ce078978987e8775c6c8860487ffb202e0029",
  "source": "pragma solidity 0.4.24;\n\nimport \"zeppelin/contracts/lifecycle/Destructible.sol\";\n\n\ncontract ProofRegistry is Destructible {\n\n    mapping(address => Proof[]) public proofs;\n    mapping(bytes32 => ExistingProof) private hashes;\n    address public owner;\n\n    struct Proof {\n        bytes32 digest;\n        uint8 hashFunction;\n        uint8 size;\n        string tags;\n    }\n\n    struct ExistingProof {\n        address owner;\n        uint8 exists;\n    }\n\n    function() public payable { }\n\n    function createProof(bytes32 _digest, uint8 _hashFunction, uint8 _size, string _tags)\n        public\n        returns (bool success)\n    {\n        bytes32 _ipfsHash = getIPFSHash(_digest, _hashFunction, _size);\n        require(hashes[_ipfsHash].exists != 1);\n        proofs[msg.sender].push(Proof(_digest, _hashFunction, _size, _tags));\n        hashes[_ipfsHash] = ExistingProof({owner: msg.sender, exists: 1});\n        return true;\n    }\n\n    function verifyProof(address _address, bytes32 _digest, uint8 _hashFunction, uint8 _size)\n        public\n        view\n        returns(bool)\n    {\n        bytes32 _ipfsHash = getIPFSHash(_digest, _hashFunction, _size);\n        if (hashes[_ipfsHash].owner == _address) {\n            return true;\n        } else {\n            return false;\n        }\n    }\n\n    function getNumberOfProofs()\n        public\n        view\n        returns (uint index)\n    {\n        return proofs[msg.sender].length;\n    }\n\n    function getIPFSHash(bytes32 _digest, uint8 _hashFunction, uint8 _size)\n        internal\n        pure\n        returns (bytes32 hash)\n    {\n        return keccak256(abi.encodePacked(_digest, _hashFunction, _size));\n    }\n\n    constructor () public {\n        owner = msg.sender;\n    }\n\n\n}",
  "sourcePath": "/Users/castelo/academy/proof-of-existence/contracts/ProofRegistry.sol",
  "compiler": {
    "name": "solc",
    "version": "0.4.24+commit.e67f0147.Emscripten.clang"
  },
  "schemaVersion": "2.0.1",
  "updatedAt": "2018-08-28T03:42:18.624Z"
}