{
  "contractName": "Proof",
  "abi": [
    {
      "constant": false,
      "inputs": [
        {
          "name": "ipfsHash",
          "type": "bytes32"
        },
        {
          "name": "fileTags",
          "type": "string"
        }
      ],
      "name": "createProof",
      "outputs": [
        {
          "name": "",
          "type": "bool"
        }
      ],
      "payable": false,
      "stateMutability": "nonpayable",
      "type": "function"
    },
    {
      "constant": true,
      "inputs": [],
      "name": "getProofs",
      "outputs": [
        {
          "name": "",
          "type": "bytes32[]"
        }
      ],
      "payable": false,
      "stateMutability": "view",
      "type": "function"
    }
  ],
  "bytecode": "0x608060405234801561001057600080fd5b50610464806100206000396000f30060806040526004361061004c576000357c0100000000000000000000000000000000000000000000000000000000900463ffffffff1680639c37fd5d14610051578063c60760f9146100e0575b600080fd5b34801561005d57600080fd5b506100c66004803603810190808035600019169060200190929190803590602001908201803590602001908080601f016020809104026020016040519081016040528093929190818152602001838380828437820191505050505050919291929050505061014c565b604051808215151515815260200191505060405180910390f35b3480156100ec57600080fd5b506100f56102bf565b6040518080602001828103825283818151815260200191508051906020019060200280838360005b8381101561013857808201518184015260208101905061011d565b505050509050019250505060405180910390f35b60006001806000856000191660001916815260200190815260200160002060000160149054906101000a900460ff1660ff161415151561018b57600080fd5b6000803373ffffffffffffffffffffffffffffffffffffffff1673ffffffffffffffffffffffffffffffffffffffff16815260200190815260200160002083908060018154018082558091505090600182039060005260206000200160009091929091909150906000191690555060408051908101604052803373ffffffffffffffffffffffffffffffffffffffff168152602001600160ff1681525060016000856000191660001916815260200190815260200160002060008201518160000160006101000a81548173ffffffffffffffffffffffffffffffffffffffff021916908373ffffffffffffffffffffffffffffffffffffffff16021790555060208201518160000160146101000a81548160ff021916908360ff1602179055509050506102b88383610357565b5092915050565b60606000803373ffffffffffffffffffffffffffffffffffffffff1673ffffffffffffffffffffffffffffffffffffffff16815260200190815260200160002080548060200260200160405190810160405280929190818152602001828054801561034d57602002820191906000526020600020905b81546000191681526020019060010190808311610335575b5050505050905090565b6000816002600085600019166000191681526020019081526020016000209080519060200190610388929190610393565b506001905092915050565b828054600181600116156101000203166002900490600052602060002090601f016020900481019282601f106103d457805160ff1916838001178555610402565b82800160010185558215610402579182015b828111156104015782518255916020019190600101906103e6565b5b50905061040f9190610413565b5090565b61043591905b80821115610431576000816000905550600101610419565b5090565b905600a165627a7a72305820c2d55cbb6f9884530d28ed78a3c62feafa76ed2d6f4aa6dc770eeb963b4535740029",
  "source": "pragma solidity ^0.4.23;\n\n\ncontract Proof {\n\n    mapping(address => bytes32[]) proofs;\n    mapping(bytes32 => ProofRecord) hashes;\n    mapping(bytes32 => string) tags;\n\n    struct ProofRecord {\n        address owner;\n        uint8 exists;\n    }\n\n    function createProof(bytes32 ipfsHash, string fileTags) public returns(bool) {\n        require(hashes[ipfsHash].exists != 1);\n        proofs[msg.sender].push(ipfsHash);\n        hashes[ipfsHash] = ProofRecord({owner: msg.sender, exists: 1});\n        setTag(ipfsHash, fileTags);\n    }\n\n    function getProofs() public view returns(bytes32[]) {\n        return proofs[msg.sender];\n    }\n\n    function setTag(bytes32 ipfsHash, string fileTags) internal returns(bool) {\n        tags[ipfsHash] = fileTags;\n        return true;\n    }\n\n}",
  "sourcePath": "/Users/castelo/academy/proof-of-existence/contracts/Proof.sol",
  "compiler": {
    "name": "solc",
    "version": "0.4.24+commit.e67f0147.Emscripten.clang"
  },
  "schemaVersion": "2.0.1",
  "updatedAt": "2018-08-26T01:51:27.784Z"
}