{
  "contractName": "ProofRegistry",
  "abi": [
    {
      "inputs": [],
      "payable": false,
      "stateMutability": "nonpayable",
      "type": "constructor"
    },
    {
      "constant": false,
      "inputs": [],
      "name": "kill",
      "outputs": [],
      "payable": false,
      "stateMutability": "nonpayable",
      "type": "function"
    },
    {
      "constant": false,
      "inputs": [
        {
          "name": "_ipfsHash",
          "type": "string"
        },
        {
          "name": "_tags",
          "type": "string"
        }
      ],
      "name": "createProof",
      "outputs": [
        {
          "name": "",
          "type": "bool"
        }
      ],
      "payable": false,
      "stateMutability": "nonpayable",
      "type": "function"
    },
    {
      "constant": true,
      "inputs": [
        {
          "name": "_address",
          "type": "address"
        },
        {
          "name": "_ipfsHash",
          "type": "string"
        }
      ],
      "name": "verifyProof",
      "outputs": [
        {
          "name": "",
          "type": "bool"
        }
      ],
      "payable": false,
      "stateMutability": "view",
      "type": "function"
    },
    {
      "constant": true,
      "inputs": [],
      "name": "getProofs",
      "outputs": [
        {
          "name": "",
          "type": "string[]"
        },
        {
          "name": "",
          "type": "string[]"
        }
      ],
      "payable": false,
      "stateMutability": "view",
      "type": "function"
    }
  ],
  "bytecode": "0x608060405234801561001057600080fd5b5033600260006101000a81548173ffffffffffffffffffffffffffffffffffffffff021916908373ffffffffffffffffffffffffffffffffffffffff160217905550610c2f806100616000396000f300608060405260043610610062576000357c0100000000000000000000000000000000000000000000000000000000900463ffffffff16806325d153e11461006757806341c0e1b5146100a4578063c51b7e77146100bb578063c60760f9146100f8575b600080fd5b34801561007357600080fd5b5061008e60048036036100899190810190610928565b610124565b60405161009b9190610ad2565b60405180910390f35b3480156100b057600080fd5b506100b96101fc565b005b3480156100c757600080fd5b506100e260048036036100dd919081019061097c565b610293565b6040516100ef9190610ad2565b60405180910390f35b34801561010457600080fd5b5061010d6104ec565b60405161011b929190610a9b565b60405180910390f35b60008273ffffffffffffffffffffffffffffffffffffffff166001836040518082805190602001908083835b6020831015156101755780518252602082019150602081019050602083039250610150565b6001836020036101000a038019825116818451168082178552505050505050905001915050908152602001604051809103902060000160009054906101000a900473ffffffffffffffffffffffffffffffffffffffff1673ffffffffffffffffffffffffffffffffffffffff1614156101f157600190506101f6565b600090505b92915050565b3373ffffffffffffffffffffffffffffffffffffffff16600260009054906101000a900473ffffffffffffffffffffffffffffffffffffffff1673ffffffffffffffffffffffffffffffffffffffff1614151561025857600080fd5b600260009054906101000a900473ffffffffffffffffffffffffffffffffffffffff1673ffffffffffffffffffffffffffffffffffffffff16ff5b6000600180846040518082805190602001908083835b6020831015156102ce57805182526020820191506020810190506020830392506102a9565b6001836020036101000a038019825116818451168082178552505050505050905001915050908152602001604051809103902060000160149054906101000a900460ff1660ff161415151561032257600080fd5b6000803373ffffffffffffffffffffffffffffffffffffffff1673ffffffffffffffffffffffffffffffffffffffff1681526020019081526020016000206040805190810160405280858152602001848152509080600181540180825580915050906001820390600052602060002090600202016000909192909190915060008201518160000190805190602001906103bc929190610819565b5060208201518160010190805190602001906103d9929190610819565b5050505060408051908101604052803373ffffffffffffffffffffffffffffffffffffffff168152602001600160ff168152506001846040518082805190602001908083835b602083101515610444578051825260208201915060208101905060208303925061041f565b6001836020036101000a038019825116818451168082178552505050505050905001915050908152602001604051809103902060008201518160000160006101000a81548173ffffffffffffffffffffffffffffffffffffffff021916908373ffffffffffffffffffffffffffffffffffffffff16021790555060208201518160000160146101000a81548160ff021916908360ff1602179055509050506001905092915050565b6060806060806000806000803373ffffffffffffffffffffffffffffffffffffffff1673ffffffffffffffffffffffffffffffffffffffff1681526020019081526020016000208054905060405190808252806020026020018201604052801561056a57816020015b60608152602001906001900390816105555790505b5093506000803373ffffffffffffffffffffffffffffffffffffffff1673ffffffffffffffffffffffffffffffffffffffff168152602001908152602001600020805490506040519080825280602002602001820160405280156105e257816020015b60608152602001906001900390816105cd5790505b509250600091505b6000803373ffffffffffffffffffffffffffffffffffffffff1673ffffffffffffffffffffffffffffffffffffffff1681526020019081526020016000208054905082101561080b576000803373ffffffffffffffffffffffffffffffffffffffff1673ffffffffffffffffffffffffffffffffffffffff1681526020019081526020016000208281548110151561067e57fe5b90600052602060002090600202019050806000018054600181600116156101000203166002900480601f0160208091040260200160405190810160405280929190818152602001828054600181600116156101000203166002900480156107265780601f106106fb57610100808354040283529160200191610726565b820191906000526020600020905b81548152906001019060200180831161070957829003601f168201915b5050505050848381518110151561073957fe5b90602001906020020181905250806001018054600181600116156101000203166002900480601f0160208091040260200160405190810160405280929190818152602001828054600181600116156101000203166002900480156107de5780601f106107b3576101008083540402835291602001916107de565b820191906000526020600020905b8154815290600101906020018083116107c157829003601f168201915b505050505083838151811015156107f157fe5b9060200190602002018190525081806001019250506105ea565b838395509550505050509091565b828054600181600116156101000203166002900490600052602060002090601f016020900481019282601f1061085a57805160ff1916838001178555610888565b82800160010185558215610888579182015b8281111561088757825182559160200191906001019061086c565b5b5090506108959190610899565b5090565b6108bb91905b808211156108b757600081600090555060010161089f565b5090565b90565b60006108ca8235610b82565b905092915050565b600082601f83011215156108e557600080fd5b81356108f86108f382610b1a565b610aed565b9150808252602083016020830185838301111561091457600080fd5b61091f838284610ba2565b50505092915050565b6000806040838503121561093b57600080fd5b6000610949858286016108be565b925050602083013567ffffffffffffffff81111561096657600080fd5b610972858286016108d2565b9150509250929050565b6000806040838503121561098f57600080fd5b600083013567ffffffffffffffff8111156109a957600080fd5b6109b5858286016108d2565b925050602083013567ffffffffffffffff8111156109d257600080fd5b6109de858286016108d2565b9150509250929050565b60006109f382610b53565b80845260208401935083602082028501610a0c85610b46565b60005b84811015610a45578383038852610a27838351610a65565b9250610a3282610b69565b9150602088019750600181019050610a0f565b508196508694505050505092915050565b610a5f81610b76565b82525050565b6000610a7082610b5e565b808452610a84816020860160208601610bb1565b610a8d81610be4565b602085010191505092915050565b60006040820190508181036000830152610ab581856109e8565b90508181036020830152610ac981846109e8565b90509392505050565b6000602082019050610ae76000830184610a56565b92915050565b6000604051905081810181811067ffffffffffffffff82111715610b1057600080fd5b8060405250919050565b600067ffffffffffffffff821115610b3157600080fd5b601f19601f8301169050602081019050919050565b6000602082019050919050565b600081519050919050565b600081519050919050565b6000602082019050919050565b60008115159050919050565b600073ffffffffffffffffffffffffffffffffffffffff82169050919050565b82818337600083830152505050565b60005b83811015610bcf578082015181840152602081019050610bb4565b83811115610bde576000848401525b50505050565b6000601f19601f83011690509190505600a265627a7a723058207f2d6262233864d0ab1d9a5730aa7cbbef891029d5f73c25c6361d678f2dd61d6c6578706572696d656e74616cf50037",
  "source": "pragma solidity ^0.4.24;\npragma experimental ABIEncoderV2;\n\n\ncontract ProofRegistry {\n\n    mapping(address => Proof[])  proofs;\n    mapping(string => ExistingProof)  hashes;\n    address owner;\n\n    struct Proof {\n        string ipfsHash;\n        string tags;\n    }\n\n    struct ExistingProof {\n        address owner;\n        uint8 exists;\n    }\n\n    constructor() public {\n        owner = msg.sender;\n    }\n\n    modifier onlyOwner {\n        require(owner == msg.sender);\n        _;\n    }\n\n    function kill() public onlyOwner{\n        selfdestruct(owner);\n    }\n\n    function createProof(string _ipfsHash, string _tags) public returns(bool) {\n        require(hashes[_ipfsHash].exists != 1);\n        proofs[msg.sender].push(Proof({ipfsHash: _ipfsHash, tags: _tags}));\n        hashes[_ipfsHash] = ExistingProof({owner: msg.sender, exists: 1});\n        return true;\n    }\n\n    function verifyProof(address _address, string _ipfsHash) public view returns(bool) {\n        if (hashes[_ipfsHash].owner == _address) {\n            return true;\n        } else {\n            return false;\n        }\n    }\n\n    function getProofs() public view returns (string[], string[]) {\n        string[] memory hashList = new string[](proofs[msg.sender].length);\n        string[] memory tagList = new string[](proofs[msg.sender].length);\n\n        for (uint i = 0; i < proofs[msg.sender].length; i++) {\n            Proof storage _proof = proofs[msg.sender][i];\n            hashList[i] = _proof.ipfsHash;\n            tagList[i] = _proof.tags;\n        }\n\n        return (hashList, tagList);\n    }\n\n}",
  "sourcePath": "/Users/castelo/academy/proof-of-existence/contracts/ProofRegistry.sol",
  "compiler": {
    "name": "solc",
    "version": "0.4.24+commit.e67f0147.Emscripten.clang"
  },
  "schemaVersion": "2.0.1",
  "updatedAt": "2018-08-27T16:10:55.102Z"
}