{
  "contractName": "ProofRegistry",
  "abi": [
    {
      "constant": false,
      "inputs": [],
      "name": "destroy",
      "outputs": [],
      "payable": false,
      "stateMutability": "nonpayable",
      "type": "function"
    },
    {
      "constant": true,
      "inputs": [],
      "name": "owner",
      "outputs": [
        {
          "name": "",
          "type": "address"
        }
      ],
      "payable": false,
      "stateMutability": "view",
      "type": "function"
    },
    {
      "constant": false,
      "inputs": [
        {
          "name": "newOwner",
          "type": "address"
        }
      ],
      "name": "transferOwnership",
      "outputs": [],
      "payable": false,
      "stateMutability": "nonpayable",
      "type": "function"
    },
    {
      "constant": false,
      "inputs": [
        {
          "name": "_recipient",
          "type": "address"
        }
      ],
      "name": "destroyAndSend",
      "outputs": [],
      "payable": false,
      "stateMutability": "nonpayable",
      "type": "function"
    },
    {
      "inputs": [],
      "payable": false,
      "stateMutability": "nonpayable",
      "type": "constructor"
    },
    {
      "payable": true,
      "stateMutability": "payable",
      "type": "fallback"
    },
    {
      "anonymous": false,
      "inputs": [
        {
          "indexed": true,
          "name": "previousOwner",
          "type": "address"
        },
        {
          "indexed": true,
          "name": "newOwner",
          "type": "address"
        }
      ],
      "name": "OwnershipTransferred",
      "type": "event"
    },
    {
      "constant": false,
      "inputs": [
        {
          "name": "_ipfsHash",
          "type": "string"
        },
        {
          "name": "_tags",
          "type": "string"
        }
      ],
      "name": "createProof",
      "outputs": [
        {
          "name": "",
          "type": "bool"
        }
      ],
      "payable": false,
      "stateMutability": "nonpayable",
      "type": "function"
    },
    {
      "constant": true,
      "inputs": [
        {
          "name": "_address",
          "type": "address"
        },
        {
          "name": "_ipfsHash",
          "type": "string"
        }
      ],
      "name": "verifyProof",
      "outputs": [
        {
          "name": "",
          "type": "bool"
        }
      ],
      "payable": false,
      "stateMutability": "view",
      "type": "function"
    },
    {
      "constant": true,
      "inputs": [],
      "name": "getProofs",
      "outputs": [
        {
          "name": "",
          "type": "string[]"
        },
        {
          "name": "",
          "type": "string[]"
        }
      ],
      "payable": false,
      "stateMutability": "view",
      "type": "function"
    }
  ],
  "bytecode": "0x608060405234801561001057600080fd5b50336000806101000a81548173ffffffffffffffffffffffffffffffffffffffff021916908373ffffffffffffffffffffffffffffffffffffffff16021790555033600360006101000a81548173ffffffffffffffffffffffffffffffffffffffff021916908373ffffffffffffffffffffffffffffffffffffffff160217905550610f30806100a16000396000f300608060405260043610610083576000357c0100000000000000000000000000000000000000000000000000000000900463ffffffff16806325d153e11461008557806383197ef0146100c25780638da5cb5b146100d9578063c51b7e7714610104578063c60760f914610141578063f2fde38b1461016d578063f5074f4114610196575b005b34801561009157600080fd5b506100ac60048036036100a79190810190610bdf565b6101bf565b6040516100b99190610db3565b60405180910390f35b3480156100ce57600080fd5b506100d7610297565b005b3480156100e557600080fd5b506100ee61032c565b6040516100fb9190610d61565b60405180910390f35b34801561011057600080fd5b5061012b60048036036101269190810190610c33565b610352565b6040516101389190610db3565b60405180910390f35b34801561014d57600080fd5b506101566105ad565b604051610164929190610d7c565b60405180910390f35b34801561017957600080fd5b50610194600480360361018f9190810190610bb6565b6108de565b005b3480156101a257600080fd5b506101bd60048036036101b89190810190610bb6565b610a33565b005b60008273ffffffffffffffffffffffffffffffffffffffff166002836040518082805190602001908083835b60208310151561021057805182526020820191506020810190506020830392506101eb565b6001836020036101000a038019825116818451168082178552505050505050905001915050908152602001604051809103902060000160009054906101000a900473ffffffffffffffffffffffffffffffffffffffff1673ffffffffffffffffffffffffffffffffffffffff16141561028c5760019050610291565b600090505b92915050565b6000809054906101000a900473ffffffffffffffffffffffffffffffffffffffff1673ffffffffffffffffffffffffffffffffffffffff163373ffffffffffffffffffffffffffffffffffffffff161415156102f257600080fd5b6000809054906101000a900473ffffffffffffffffffffffffffffffffffffffff1673ffffffffffffffffffffffffffffffffffffffff16ff5b600360009054906101000a900473ffffffffffffffffffffffffffffffffffffffff1681565b600060016002846040518082805190602001908083835b60208310151561038e5780518252602082019150602081019050602083039250610369565b6001836020036101000a038019825116818451168082178552505050505050905001915050908152602001604051809103902060000160149054906101000a900460ff1660ff16141515156103e257600080fd5b600160003373ffffffffffffffffffffffffffffffffffffffff1673ffffffffffffffffffffffffffffffffffffffff16815260200190815260200160002060408051908101604052808581526020018481525090806001815401808255809150509060018203906000526020600020906002020160009091929091909150600082015181600001908051906020019061047d929190610aa7565b50602082015181600101908051906020019061049a929190610aa7565b5050505060408051908101604052803373ffffffffffffffffffffffffffffffffffffffff168152602001600160ff168152506002846040518082805190602001908083835b60208310151561050557805182526020820191506020810190506020830392506104e0565b6001836020036101000a038019825116818451168082178552505050505050905001915050908152602001604051809103902060008201518160000160006101000a81548173ffffffffffffffffffffffffffffffffffffffff021916908373ffffffffffffffffffffffffffffffffffffffff16021790555060208201518160000160146101000a81548160ff021916908360ff1602179055509050506001905092915050565b606080606080600080600160003373ffffffffffffffffffffffffffffffffffffffff1673ffffffffffffffffffffffffffffffffffffffff1681526020019081526020016000208054905060405190808252806020026020018201604052801561062c57816020015b60608152602001906001900390816106175790505b509350600160003373ffffffffffffffffffffffffffffffffffffffff1673ffffffffffffffffffffffffffffffffffffffff168152602001908152602001600020805490506040519080825280602002602001820160405280156106a557816020015b60608152602001906001900390816106905790505b509250600091505b600160003373ffffffffffffffffffffffffffffffffffffffff1673ffffffffffffffffffffffffffffffffffffffff168152602001908152602001600020805490508210156108d057600160003373ffffffffffffffffffffffffffffffffffffffff1673ffffffffffffffffffffffffffffffffffffffff1681526020019081526020016000208281548110151561074357fe5b90600052602060002090600202019050806000018054600181600116156101000203166002900480601f0160208091040260200160405190810160405280929190818152602001828054600181600116156101000203166002900480156107eb5780601f106107c0576101008083540402835291602001916107eb565b820191906000526020600020905b8154815290600101906020018083116107ce57829003601f168201915b505050505084838151811015156107fe57fe5b90602001906020020181905250806001018054600181600116156101000203166002900480601f0160208091040260200160405190810160405280929190818152602001828054600181600116156101000203166002900480156108a35780601f10610878576101008083540402835291602001916108a3565b820191906000526020600020905b81548152906001019060200180831161088657829003601f168201915b505050505083838151811015156108b657fe5b9060200190602002018190525081806001019250506106ad565b838395509550505050509091565b6000809054906101000a900473ffffffffffffffffffffffffffffffffffffffff1673ffffffffffffffffffffffffffffffffffffffff163373ffffffffffffffffffffffffffffffffffffffff1614151561093957600080fd5b600073ffffffffffffffffffffffffffffffffffffffff168173ffffffffffffffffffffffffffffffffffffffff161415151561097557600080fd5b8073ffffffffffffffffffffffffffffffffffffffff166000809054906101000a900473ffffffffffffffffffffffffffffffffffffffff1673ffffffffffffffffffffffffffffffffffffffff167f8be0079c531659141344cd1fd0a4f28419497f9722a3daafe3b4186f6b6457e060405160405180910390a3806000806101000a81548173ffffffffffffffffffffffffffffffffffffffff021916908373ffffffffffffffffffffffffffffffffffffffff16021790555050565b6000809054906101000a900473ffffffffffffffffffffffffffffffffffffffff1673ffffffffffffffffffffffffffffffffffffffff163373ffffffffffffffffffffffffffffffffffffffff16141515610a8e57600080fd5b8073ffffffffffffffffffffffffffffffffffffffff16ff5b828054600181600116156101000203166002900490600052602060002090601f016020900481019282601f10610ae857805160ff1916838001178555610b16565b82800160010185558215610b16579182015b82811115610b15578251825591602001919060010190610afa565b5b509050610b239190610b27565b5090565b610b4991905b80821115610b45576000816000905550600101610b2d565b5090565b90565b6000610b588235610e83565b905092915050565b600082601f8301121515610b7357600080fd5b8135610b86610b8182610dfb565b610dce565b91508082526020830160208301858383011115610ba257600080fd5b610bad838284610ea3565b50505092915050565b600060208284031215610bc857600080fd5b6000610bd684828501610b4c565b91505092915050565b60008060408385031215610bf257600080fd5b6000610c0085828601610b4c565b925050602083013567ffffffffffffffff811115610c1d57600080fd5b610c2985828601610b60565b9150509250929050565b60008060408385031215610c4657600080fd5b600083013567ffffffffffffffff811115610c6057600080fd5b610c6c85828601610b60565b925050602083013567ffffffffffffffff811115610c8957600080fd5b610c9585828601610b60565b9150509250929050565b610ca881610e57565b82525050565b6000610cb982610e34565b80845260208401935083602082028501610cd285610e27565b60005b84811015610d0b578383038852610ced838351610d2b565b9250610cf882610e4a565b9150602088019750600181019050610cd5565b508196508694505050505092915050565b610d2581610e77565b82525050565b6000610d3682610e3f565b808452610d4a816020860160208601610eb2565b610d5381610ee5565b602085010191505092915050565b6000602082019050610d766000830184610c9f565b92915050565b60006040820190508181036000830152610d968185610cae565b90508181036020830152610daa8184610cae565b90509392505050565b6000602082019050610dc86000830184610d1c565b92915050565b6000604051905081810181811067ffffffffffffffff82111715610df157600080fd5b8060405250919050565b600067ffffffffffffffff821115610e1257600080fd5b601f19601f8301169050602081019050919050565b6000602082019050919050565b600081519050919050565b600081519050919050565b6000602082019050919050565b600073ffffffffffffffffffffffffffffffffffffffff82169050919050565b60008115159050919050565b600073ffffffffffffffffffffffffffffffffffffffff82169050919050565b82818337600083830152505050565b60005b83811015610ed0578082015181840152602081019050610eb5565b83811115610edf576000848401525b50505050565b6000601f19601f83011690509190505600a265627a7a72305820e90febe974171aed5490d643d17099cba091569650f91eed428f9c02497666956c6578706572696d656e74616cf50037",
  "source": "pragma solidity ^0.4.24;\npragma experimental ABIEncoderV2;\n\nimport \"zeppelin/contracts/lifecycle/Destructible.sol\";\n\n\ncontract ProofRegistry is Destructible {\n\n    mapping(address => Proof[]) private proofs;\n    mapping(string => ExistingProof) private hashes;\n    address public owner;\n\n    struct Proof {\n        string ipfsHash;\n        string tags;\n    }\n\n    struct ExistingProof {\n        address owner;\n        uint8 exists;\n    }\n\n    constructor() public {\n        owner = msg.sender;\n    }\n\n    function() public payable { }\n\n    function createProof(string _ipfsHash, string _tags) public returns(bool) {\n        require(hashes[_ipfsHash].exists != 1);\n        proofs[msg.sender].push(Proof({ipfsHash: _ipfsHash, tags: _tags}));\n        hashes[_ipfsHash] = ExistingProof({owner: msg.sender, exists: 1});\n        return true;\n    }\n\n    function verifyProof(address _address, string _ipfsHash) public view returns(bool) {\n        if (hashes[_ipfsHash].owner == _address) {\n            return true;\n        } else {\n            return false;\n        }\n    }\n\n    function getProofs() public view returns (string[], string[]) {\n        string[] memory hashList = new string[](proofs[msg.sender].length);\n        string[] memory tagList = new string[](proofs[msg.sender].length);\n\n        for (uint i = 0; i < proofs[msg.sender].length; i++) {\n            Proof storage _proof = proofs[msg.sender][i];\n            hashList[i] = _proof.ipfsHash;\n            tagList[i] = _proof.tags;\n        }\n\n        return (hashList, tagList);\n    }\n\n}",
  "sourcePath": "/Users/castelo/academy/proof-of-existence/contracts/ProofRegistry.sol",
  "compiler": {
    "name": "solc",
    "version": "0.4.24+commit.e67f0147.Emscripten.clang"
  },
  "schemaVersion": "2.0.1",
  "updatedAt": "2018-08-27T18:21:06.563Z"
}